:020000040800F2
:10000000D0070020890200081B2B00083F220008AF
:10001000192B000833070008B54000080000000055
:100020000000000000000000000000003D2F00085C
:100030003507000800000000552B00087D2F000840
:10004000A3020008A3020008A3020008A3020008FC
:10005000A3020008A3020008A3020008A3020008EC
:10006000A3020008A3020008A3020008A3020008DC
:10007000A3020008A3020008A3020008A3020008CC
:10008000A302000800000000A3020008A302000869
:10009000A3020008A3020008A3020008A3020008AC
:1000A000A3020008A3020008A3020008A30200089C
:1000B000A3020008A302000865300008A30200089C
:1000C000A3020008A3020008A3020008A30200087C
:1000D000A3020008A9400008A3020008A302000828
:1000E000A3020008A3020008A3020008A30200085C
:1000F000A3020008A3020008A302000800000000F9
:1001000000000000A302000800000000A302000895
:10011000A302000800000000A3020008A3020008D8
:10012000A3020008A3020008A3020008A30200081B
:10013000A30200080000000000000000A302000865
:10014000A3020008A3020008000000000000000055
:10015000000000000000000000000000000000009F
:10016000000000000000000000000000A3020008E2
:10017000A3020008000000000000000000000000D2
:1001800000000000A30200080000000000000000C2
:10019000000000000000000000000000000000005F
:1001A0000000000000000000A3020008A3020008F5
:1001B000A3020008A3020008A30200080000000038
:1001C00000000000A3020008000000000000000082
:1001D000A3020008A302000800F002F800F044F8AF
:1001E0000AA090E8000C82448344AAF10107DA4592
:1001F00001D100F039F8AFF2090EBAE80F0013F0A0
:10020000010F18BFFB1A43F00103184738510000D3
:1002100058510000103A24BF78C878C1FAD8520764
:1002200024BF30C830C144BF04680C607047000070
:100230000023002400250026103A28BF78C1FBD8EF
:10024000520728BF30C148BF0B607047642900F0D7
:100250002581632900F02782002070471FB503F035
:1002600077FF1FBD10B510BD00F029FA1146FFF74A
:10027000F5FF03F031FF00F047FA03B4FFF7F2FF98
:1002800003BC00F04FFA00000948804709480047C6
:10029000FEE7FEE7FEE7FEE7FEE7FEE7FEE7FEE736
:1002A000FEE7FEE704480549054A064B7047000093
:1002B00049300008D9010008D0010020D0070020F3
:1002C000D0030020D003002053EA020C00F0698024
:1002D0002DE9F04B4FF00006002B1FBFB3FA83F55A
:1002E00003FA05F424FA05F65E4012BF1643B2FA8B
:1002F00082F502FA05F4C5F120051EBF22FA05FCBD
:1003000044EA0C04203556EA044C4FEA144418BF62
:10031000641C4FF000084FF00009904271EB030C91
:1003200039D3002919BFB1FA81F701FA07F6B0FAFB
:1003300080F700FA07F6C7F120071EBF20FA07FC76
:1003400046EA0C062037B6FBF4FCA7EB0507103F86
:1003500007F01F0BCBF120060CFA0BFB2CFA06F66C
:1003600044BFB3460026202FA4BF5E464FF0000BCB
:100370005BEA060C08BF4FF0010B19EB0B09ABFB56
:10038000027C48EB0608C01B06FB02CC0BFB03CC2F
:1003900071EB0C01C1E70B46024641464846BDE8F9
:1003A000F08B13B54FF000004FF00001AFF3008069
:1003B000BDE81C40704700000FB41CB5074B06AAEF
:1003C0007B4469460090059800F04BF9002069468F
:1003D00000F05AF91CBC5DF814FB0000C5020000D7
:1003E0002DE9F0410E460446002020622046E168D7
:1003F000884730B3252805D0D4E901219047206AE9
:10040000401CF2E7E168204600278847050018D025
:10041000A5F14100192802D820354FF40067324673
:10042000294620462760FFF711FF40B1012804D07C
:10043000F61D26F007060836D8E7361DD6E728460B
:10044000DAE7206ABDE8F08170B50C460546012A5E
:1004500005D02878800600D5EA69002302E0012350
:1004600005E05B1C934202D2E05C0028F9D1A86948
:10047000E618C01AA861286A184428622846AFF313
:10048000008004E0D5E9012114F8010B9047B44243
:10049000F8D32846AFF3008070BD00002DE9F0418D
:1004A0000646002410687529314616A510D0AFF312
:1004B0000080002802DA404213A507E031688A076D
:1004C00001D512A502E0490704D511A5012401E0D8
:1004D000AFF3008000210A2206F1240709E0B0FBF7
:1004E000F2FCB0FBF2F302FB1C00303078541846EB
:1004F000491C0028F3D123462A463046BDE8F04186
:1005000000F051B8000000002D0000002B0000009A
:100510002000000010B5431C02E010F8011B71B16F
:100520008107FAD14FF0013202C88C1A8C4314EAC9
:10053000C211F9D0C01A0A0603D0C01E10BDC01ADD
:1005400010BD0A0401D0801E10BD0902FCD0401E5F
:1005500010BD4FF0000200B5134694469646203970
:1005600022BFA0E80C50A0E80C50B1F12001BFF46C
:10057000F7AF090728BFA0E80C5048BF0CC05DF8D2
:1005800004EB890028BF40F8042B08BF704748BF20
:1005900020F8022B11F0804F18BF00F8012B704794
:1005A0007047704770472DE9F0470D4699469246CF
:1005B000044600F124080168880604D5E06921F0AA
:1005C0001001216000E00120A84201DD471B00E08E
:1005D0000027A1697A1902EB0900081AA0612078A6
:1005E000C00602D42046AFF30080002608E0D4E91C
:1005F00001211AF806009047206A401C761C2062F0
:100600004E45F4DB2078C0060AD52046AFF30080C3
:1006100006E0D4E9012130209047206A401C206286
:10062000381EA7F10107F4DC07E0D4E9012118F82E
:1006300005009047206A401C2062281EA5F1010594
:10064000F3DC2046AFF300802078000602D50220BC
:10065000BDE8F0870120FBE701694A1C02610878C8
:10066000704700B58FB0CDE90131002105910549F2
:100670007944CDE9031011466846FFF7B1FE0FB08B
:1006800000BD0000E5FFFFFF0A6802F8010B0A60E9
:10069000704710B5436913B1AFF3008001E0FFF775
:1006A000D3FE012010BD127800F124010A7000224F
:1006B0004A700122EDE711684FF0FF32E9E7754615
:1006C00000F02CF8AE4605006946534620F00700BE
:1006D000854618B020B5FFF7E5FDBDE820404FF096
:1006E00000064FF000074FF000084FF0000B21F01C
:1006F0000701AC46ACE8C009ACE8C009ACE8C009E9
:10070000ACE8C0098D46704710B50446AFF30080D1
:100710002046BDE81040FFF7B0BD0000004870471C
:100720006C01002001491820ABBEFEE72600020044
:100730007047FEE77047002240F6B83306E000211C
:10074000491C89B29942FBD3521C92B28242F6D321
:100750007047704770B590F825200024012123468A
:10076000022A07D00422C26380F8251080F82430C2
:10077000012429E00268156825F00E05156002685D
:10078000156825F001051560826C156825F48075E3
:10079000156090F84420056C02F01F0201FA02F285
:1007A0006A60D0E913255560426D32B1156825F4B1
:1007B00080751560D0E91625556080F8251080F801
:1007C0002430816B01B18847204670BD70B5044666
:1007D00000F0FCF80546601C02D004484068044460
:1007E00000F0F4F8401BA042FAD370BD2C000020AA
:1007F0002DE9FC4FDFF8A0A1002301250AF1040B2D
:1008000003244FF00F0C0BF1040EBDE005FA03F6C4
:1008100032406FD04F68012F05D0022F03D0112F27
:1008200001D0122F17D1D0F808905F0004FA07F812
:1008300029EA08090097D1F80C8008FA07F848EA75
:100840000908C0F808804768B7430E79C6F3001658
:100850009E403E434660C6684FEA430804FA08F7E4
:10086000BE4301978F6807FA08F73743C7604E68A1
:10087000022E01D0122E13D1DE0800EB8606009660
:10088000366A5F07FF0E0CFA07F926EA0906D1F867
:10089000109009FA07F949EA0609009EC6F8209067
:1008A0000668019FBE430F7907F0030707FA08F7B0
:1008B000374307604E68F60065D5384E376E47F00F
:1008C00001073766366E23F0030706F0010600962F
:1008D000334E3E44B146B6689F074FEA17780CFA8C
:1008E00008F7BE43B0F1904F05D02E4FB84204D167
:1008F000012717E047E0002714E02B4FB84201D151
:1009000002270FE0294FB84201D103270AE0284F00
:10091000B84201D1042705E0264FB84201D105278E
:1009200000E0062707FA08F73743C9F80870DAF835
:1009300000605746D1F8048096435FEAC83800D576
:1009400016433E60DBF800605F46D1F804809643B2
:100950005FEA883800D516433E60DEF800607746CF
:10096000D1F8048096435FEAC82800D516433E605C
:10097000094F0C373E68D1F8048096435FEA882817
:1009800000D516433E605B1C0A6832FA03F67FF41A
:100990003DAFBDE8FC8F00000004014000100240A4
:1009A000000001400004004800080048000C004816
:1009B00000100048001400480069084000D00120E1
:1009C00070470AB181617047816270470148806851
:1009D000704700002C0000200248816842681144E2
:1009E000816070472C00002010B50024032000F027
:1009F00077F8002000F008F808B1012401E000F0C9
:100A000025F8204610BD000070B50E4E05460024A6
:100A1000706898B14FF47A71B1FBF0F00A49096837
:100A2000B1FBF0F000F060FD40B9102D06D20022BD
:100A30002946501E00F034F8356000E001242046BD
:100A400070BD00002C000020380000200B4808B5C5
:100A5000016E41F001010166016E01F0010100919A
:100A6000816D41F080518165806D00F08050009073
:100A70000348816841F48041816008BD0010024054
:100A800000700040002809DB00F01F0201219140A6
:100A90004009800000F1E020C0F80011704700001C
:100AA000F0B40E4B1B680C46C3F30223C3F10705D9
:100AB000042D00D90425191D072901D2002300E0C7
:100AC000DB1E012606FA05F1491E214099409E4091
:100AD000761E16403143F0BC03F0EDBA0CED00E099
:100AE000064900F0070208684FF6FF03184040EA85
:100AF0000220034A10430860704700000CED00E03C
:100B00000000FA052B492C4B0A6832214A432B4935
:100B100040B1B0F5007F086829D020F4C06040F4EF
:100B200080602CE00868C0F34120022804D051F80E
:100B3000800F20F4807022E0D1F8800020F48070D3
:100B4000C1F88000086820F4C06040F400700860BC
:100B5000B2FBF3F0401C00E0401E4A69520501D58B
:100B60000028F9D1486940050AD503207047C0F331
:100B70004120022806D051F8800F40F480700860B0
:100B800000207047D1F8800040F48070C1F88000E8
:100B9000086820F4C06040F400700860B2FBF3F015
:100BA000401C00E0401E4A695205DBD50028F9D1FF
:100BB000D8E700003800002040420F0000700040DD
:100BC0002DE9F8430446006800269D4D00035ED5DC
:100BD000A86D0027C00008D4A86D40F08050A8651B
:100BE000A86D012700F080500090DFF85892D9F8E6
:100BF000001041F48071C9F80010FFF7E7FE80464D
:100C000006E000BFFFF7E2FEA0EB080002282BD8A9
:100C1000D9F80000C005F5D5D5F8900010F4407063
:100C200014D0216C814211D0D5F89000D5F89010E5
:100C300020F4407041F48031C5F89010D5F8901040
:100C400021F48031C5F89010C5F89000C00711D08C
:100C5000FFF7BCFE804641F2883907E0FFF7B6FE99
:100C6000A0EB0801494501D903260BE0D5F8900017
:100C70008007F3D5D5F89000216C20F4407008432C
:100C8000C5F890001FB1A86D20F08050A8652078AD
:100C9000C00707D0D5F88800616820F0030008433A
:100CA000C5F888002078800707D5D5F88800A168A6
:100CB00020F00C000843C5F888002078400707D5CD
:100CC000D5F88800E16820F030000843C5F88800B6
:100CD0002078000707D5D5F88800216920F0C000EA
:100CE0000843C5F888002078800607D5D5F8880025
:100CF000616920F440600843C5F888002078400608
:100D000007D5D5F88800A16920F440500843C5F8FC
:100D100088002078000607D5D5F88800E16920F41E
:100D200040400843C5F888002088C00507D5D5F89D
:100D30008800216A20F440300843C5F888002088E4
:100D4000800507D5D5F88800616A20F44020084363
:100D5000C5F88800208840050FD5D5F88800A16A1D
:100D600020F440100843C5F88800A06AB0F5801F41
:100D700003D1E86840F48010E860208800050FD5B2
:100D8000D5F88800E16A20F440000843C5F88800DF
:100D9000E06AB0F5800F03D1E86840F48010E860A5
:100DA0002088C0040FD5D5F88800216B20F0407052
:100DB0000843C5F88800206BB0F1807F03D1E86854
:100DC00040F48010E86020884FF0006180040ED568
:100DD000D5F88800626B20F040601043C5F88800A9
:100DE000606B884203D1E86840F48010E860208896
:100DF00040040ED5D5F88800A26B20F04060104367
:100E0000C5F88800A06B884203D1E86840F48010E0
:100E1000E860208800040FD5D5F88800E16B20F049
:100E200040500843C5F88800E06BB0F1805F03D103
:100E3000E86840F48030E8603046BDE8F8830000A0
:100E400000100240007000402DE9F0470E460500FA
:100E50004FF0000725D0DFF8AC81D8F8000000F093
:100E60000F00B0420CD2D8F8001021F00F0131432E
:100E7000C8F80010D8F8000000F00F00B04210D100
:100E80002968614CC80741F2883A5AD06868DFF88F
:100E90007C91032808D0022820682DD04005002826
:100EA0002CDB0120BDE8F08720688001F9D5E068DF
:100EB00000F00302E068C0F30310401C032A19D0BD
:100EC000534A00BFB2FBF0F0E268C2F3062250437F
:100ED000E268C2F34162521C5200B0FBF2F0484596
:100EE00017D9A06810F0F00F0CD0880711D5A868AA
:100EF00040B10EE0474AE5E78003D0E700F0B6F8DE
:100F0000484506D9A06820F0F00040F08000A060BD
:100F10008027A068696820F003000843A060FFF7FD
:100F200055FD814606E000BFFFF750FDA0EB09012B
:100F300051453AD8A068696800F00C00B0EB810F09
:100F4000F2D12868810714D5400703D5A06840F482
:100F5000E060A0602878000705D5A06820F4605004
:100F600040F4E060A060A068A96820F0F0000843A9
:100F700004E0802F03D1A06820F0F000A060D8F832
:100F80000010404601F00F01B14216D9016821F06E
:100F90000F0131430160FFF719FD074607E000BF6D
:100FA000FFF714FDC11B514501D903207AE7D8F89A
:100FB000000000F00F00B042F2D12878400705D5BC
:100FC000A068E96820F4E0600843A0602878000782
:100FD00006D5A068296920F4605040EAC100A060ED
:100FE00000F044F8A1680C4AC1F30311515C01F010
:100FF0001F01C8400949086009480068BDE8F0477A
:10100000FFF702BD002002400010024000B4C404FB
:101010000024F40000366E012A5300083800002036
:101020002C0000200548064900688968054AC1F37C
:101030000221515C01F01F01C840704738000020B8
:10104000001002403A5300080548064900688968C4
:10105000054AC1F3C221515C01F01F01C84070472D
:1010600038000020001002403A530008184910B51B
:101070008868C0F381021748012A0BD08A68164B92
:10108000C2F38102022A06D08A68C2F38102032ACF
:1010900003D0002010BD184610BDCA6802F003043A
:1010A000CA68C2F30312521C032C02D0B0FBF2F048
:1010B00001E0B3FBF2F0CA68C968C2F306225043EC
:1010C000C1F34161491C4900B0FBF1F010BD0000C3
:1010D000001002400024F40000366E012DE9F843B0
:1010E00004007AD02078FA4DC00747D0A868E96894
:1010F00000F00C0001F003010C2802D0082817D0E2
:1011000001E0032914D06068B0F5803F17D0B0F536
:10111000A02F286817D020F480302860286820F499
:10112000802028606068E0B1FFF750FC064614E0BC
:101130002868800322D560680028D2D01EE0286885
:1011400040F48030EDE740F480202860F7E700BFEE
:10115000FFF73CFC801B642870D828688003F7D513
:101160000CE0FFF733FC064605E000BFFFF72EFC5E
:10117000801B6428F0D828688003F7D42078800783
:101180004CD5A868E96800F00C0001F003010C28B8
:1011900002D004280DD001E002290AD0E06800281E
:1011A00028682BD040F480702860FFF70FFC0646BB
:1011B00019E02868400502D5E068002891D06868E9
:1011C000217C20F0FE4040EA01606860C148006870
:1011D000FFF71AFC002800D120E076E1FFF7F6FBCC
:1011E000801B0228B8D828684005F7D56868217C9C
:1011F00020F0FE4040EA016068600FE020F480705B
:101200002860FFF7E3FB064605E000BFFFF7DEFBC3
:10121000801B0228A0D828684005F7D42078000752
:1012200029D560690028D5F8940013D040F001005A
:10123000C5F89400FFF7CAFB064606E090E000BF41
:10124000FFF7C4FB801B022886D8D5F894008007DE
:10125000F6D510E020F00100C5F89400FFF7B6FBCA
:10126000064604E0FFF7B2FB801B022878D8D5F8C9
:1012700094008007F6D42078400761D5A86D002639
:10128000C00008D4A86D40F08050A865A86D012664
:1012900000F08050009090480168C90511D40168A1
:1012A000804641F480710160FFF790FB074604E03F
:1012B000FFF78CFBC01B022852D8D8F80000C005ED
:1012C000F6D5A068012815D00528D5F8900016D0CD
:1012D00020F00100C5F89000D5F8900020F004003F
:1012E000C5F89000A06841F28838B8B1FFF76EFBEE
:1012F00007460EE0D5F8900040F00100F0E740F01E
:101300000400C5F89000F5E7FFF760FBC11B4145FD
:1013100026D8D5F890008007F6D50CE0FFF756FBED
:10132000074604E0FFF752FBC11B414518D8D5F82A
:1013300090008007F6D41EB1A86D20F08050A865FB
:101340002078800629D5A0690028D5F8980013D008
:1013500040F00100C5F89800FFF738FB064606E0AC
:1013600077E000BFFFF732FB801B022877D8D5F863
:1013700098008007F6D510E020F00100C5F898002D
:10138000FFF724FB064604E0FFF720FB801B022842
:1013900065D8D5F898008007F6D4E069F0B3A9685D
:1013A000C1F38101032961D00228286820F08070F0
:1013B00028600BD0E86820F00300E860E86847493F
:1013C0000840E860FFF702FB04464BE0FFF7FEFA37
:1013D000064604E0FFF7FAFA801B02283FD8286887
:1013E0008001F7D4F4E908016FF00F0202EB01115C
:1013F0000843218A5204490802EB4151A26841EA9C
:1014000002210843217D4FF07E42490802EB4161F1
:101410000843217B40EAC160E96800E062E0304AAD
:1014200011400843E860286840F080702860E86850
:1014300040F08070E860FFF7C9FA044605E000BF9D
:10144000FFF7C4FA001B022809D828688001F7D5E5
:1014500048E004E0FFF7BAFA001B022802D9032093
:10146000BDE8F88328688001F4D43BE00128F7D078
:10147000E868226A00F00301914226D1616A00F017
:10148000F0020901103991421FD1A26A00F4FE4115
:10149000B1EB022F19D194F82C2000F07841B1EB78
:1014A000C26F12D1218E00F4C00249084905A1F58E
:1014B0000011914209D194F8341000F0C06049083D
:1014C0004906A1F1007181420CD00120C8E700005B
:1014D000001002402C00002000700040FFFFEEFED4
:1014E0000C809F010020BBE710B5401EB0F1807F4B
:1014F00001D3012010BD4FF0E02460610F2160177F
:1015000002F0D9FD0020A06107202061002010BD5D
:10151000704770477047704770477047F0B590F854
:101520003C20012A3AD0012580F83C50022280F864
:101530003D2003685A689C68194E1A4FB34201D087
:10154000BB4204D122F4700C4A6842EA0C02DFF874
:1015500058C002EA0C02D1F800C04CEA020CC3F8F1
:1015600004C00268B2420DD0B2F1804F0AD00F4BD6
:101570009A4207D00E4B9A4204D0BA4202D00D4B89
:101580009A4204D1896824F080031943916080F85D
:101590003D50002180F83C100846F0BD0220F0BD0F
:1015A000002C0140003401408FFFFFFD000400408B
:1015B0000008004000400140704710B5040003D00F
:1015C00094F83D0010B107E0012010BD002084F820
:1015D0003C00204600F022F8022084F83D00211D46
:1015E000206801F045FD012084F8480084F83E00A1
:1015F00084F83F0084F8400084F8410084F84200F9
:1016000084F8430084F8440084F8450084F84600D8
:1016100084F8470084F83D00002010BD08B500683C
:101620000B49884212D10B48816D41F0040181655C
:10163000806D002200F00400009011461E20FFF78C
:101640002FFABDE808401E20FFF71CBA08BD0000B5
:10165000000800400010024090F83D10012901D020
:1016600001207047022180F83D100168CA6842F0ED
:101670000102CA6000688168064A1140062906D046
:10168000B1F5803F03D0016841F001010160002005
:10169000704700000700010070B5044690F83C0058
:1016A000012815D0012584F83C50022084F83D0023
:1016B00022689068354B184020F47F40906008689D
:1016C000B0F5805F50D010DC10F00F0F03D04BE06E
:1016D0004FF0020070BD4FEA2012082A44D2DFE822
:1016E00002F05151515149323A1B294BC21A9842CA
:1016F00048D00ADCB0F5005F19D0B0F1101F41D01E
:10170000A0F5801120392FD13CE0102A3AD0302AA0
:1017100038D0402A28D135E0CB68D1E901212068B2
:1017200001F00BFD2068816841F0770109E0CB688A
:10173000D1E90121206801F000FD2068816841F4B1
:101740008041816010E0CA684968206801F0A0FE0D
:101750005021206806E0CA684968206801F0A9FEA7
:101760006021206801F0F4FC84F83D50002084F8EA
:101770003C0070BDCA684968206801F089FE4021BC
:101780002068EFE7226801461046EBE788FFCEFFAE
:1017900030001000704770B50446006801694FF0D2
:1017A0000005C943890715D4C168C943890711D405
:1017B000E91E0161012020772068806980072046AA
:1017C00002D0FFF7E7FF04E000F00AF9204600F03E
:1017D000DBF9257720680169C943490717D4C16837
:1017E000C943490713D46FF0040101610220207737
:1017F0002068806910F4407F204602D0FFF7CAFFBE
:1018000004E000F0EDF8204600F0BEF925772068EE
:101810000169C943090716D4C168C943090712D42D
:101820006FF008010161042020772068C0698007FB
:10183000204602D0FFF7AEFF04E000F0D1F82046CA
:1018400000F0A2F9257720680169C943C90617D4B9
:10185000C168C943C90613D46FF0100101610820A3
:1018600020772068C06910F4407F204602D0FFF73F
:1018700091FF04E000F0B4F8204600F085F92577E8
:1018800020680169C943C90708D1C168C943C907AC
:1018900004D1891E0161204600F0E2F92068016947
:1018A000C943090609D4C168C943090605D46FF0C4
:1018B000800101612046FFF72CFE20680169C943C1
:1018C000C90509D4C168C943090605D46FF48071FC
:1018D00001612046FFF71CFE20680169C9434906E3
:1018E00009D4C168C943490605D46FF040010161BC
:1018F000204600F001FA20680169C943890609D42D
:10190000C168C943890605D46FF0200101612046F2
:10191000FFF700FE20680169C943C90209D4C16804
:10192000C943C90205D46FF4801101612046FFF755
:10193000F3FD20680169C943890209D4C168C9431C
:10194000890205D46FF4001101612046FFF7E3FD21
:1019500020680169C943490209D4C168C9434902E1
:1019600005D46FF4800101612046FFF7D6FD2068A1
:101970000169C94309020BD4C168C943090207D4EC
:101980006FF4000101612046BDE87040FFF714BE0E
:1019900070BD000010B586B0044614216846FEF7FD
:1019A000D8FD2068B0F1804F15D10C48C16C41F0D2
:1019B0000101C164C06C694600F00100059002207D
:1019C00000900190002002900390012004904FF0BD
:1019D0009040FEF70DFF06B010BD00000010024061
:1019E000704770B5044690F83C000D4601280BD0B6
:1019F000012084F83C000C2A45D007DC5AB1042AA7
:101A00001BD0082A78D12CE0022070BD102A4ED0BD
:101A1000142A71D15DE0206801F0A4FB206881697F
:101A200041F0080181612068816921F00401816130
:101A3000206881692A69114311E0206801F0E0FB08
:101A40002068816941F4006181612068816921F425
:101A500080618161206881692A6941EA022181618E
:101A60004AE0206801F014FC2068C16941F00801D7
:101A7000C1612068C16921F00401C1612068C169A8
:101A80002A69114311E0206801F04AFC2068C1690D
:101A900041F40061C1612068C16921F48061C161C4
:101AA0002068C1692A6941EA0221C16124E02068F5
:101AB00001F07EFC2068016D41F00801016520689D
:101AC000016D21F0040101652068016D2A6911434F
:101AD00011E0206801F0A4FC2068016D41F4006170
:101AE00001652068016D21F4806101652068016D48
:101AF0002A6941EA02210165002084F83C0070BD9A
:101B000010B5040003D094F83D0010B107E00120A7
:101B100010BD002084F83C00204600F023F802208D
:101B200084F83D00211D206801F0A2FA012084F80C
:101B3000480084F83E0084F83F0084F8400084F8B0
:101B4000410084F8420084F8430084F8440084F89B
:101B5000450084F8460084F8470084F83D000020E2
:101B600010BD000008B50068B0F1804F08D10548ED
:101B7000816D41F001018165806D00F001000090F0
:101B800008BD0000001002407047000010B5044678
:101B9000022269B1042912D0082917D00C291CD0BF
:101BA000102921D094F84300012824D0012010BD31
:101BB00094F83E000128F9D184F83E201DE094F805
:101BC0003F000128F2D184F83F2016E094F840004D
:101BD0000128EBD184F840200FE094F8410001285F
:101BE000E4D184F8412008E094F842000128DDD1D6
:101BF00084F8422001E084F843200122206801F0AB
:101C00008FFA1149206888420BD01049884208D0C9
:101C10000F49884205D00F49884202D00E498842B8
:101C200003D1416C41F400414164206881680B4A52
:101C30001140062906D0B1F5803F03D0016841F07C
:101C400001010160002010BD002C01400034014062
:101C500000400140004401400048014007000100ED
:101C600070B50068214988423FD1214D01212846A5
:101C7000FEF7A2FE00B101201E4C02216070284632
:101C8000FEF79AFE00B10120207104212846FEF7DC
:101C900093FE00B10120E07101214FF09040FEF76A
:101CA0008BFE00B101200021A07201224FEA010346
:101CB00001EB4100255C25B1012D07D0022D11D18A
:101CC0000BE005196D786DB922540BE005196E789B
:101CD0003EB9AA700225255404E005196D78012D3E
:101CE00000D12354491C0429E2DB70BD00080040E8
:101CF0000004004860010020704790F87C10012922
:101D000018D0012180F87C102421C0F8801050F8F0
:101D1000601B0A680B6823F001030B6022F000517E
:101D20000022426050F8603C196020210162027775
:101D30001046704702207047704770B5044690F80F
:101D40007C0001281DD0012084F87C002420C4F8E8
:101D5000800020680568026822F0010202602068A5
:101D6000826822F060620A438260204601F0B4FB80
:101D7000206805602020C4F88000002084F87C00E2
:101D800070BD022070BD70B5044690F87C0001283B
:101D90001DD0012084F87C002420C4F88000206835
:101DA0000568026822F0010202602068826822F061
:101DB00060420A438260204601F08EFB2068056085
:101DC0002020C4F88000002084F87C0070BD022030
:101DD00070BD7047704770472DE9F04103680446B5
:101DE000D8691A68996810F00F0F4FF0000569D094
:101DF0005E4E02F490770E4037437DD0C70709D07E
:101E0000D70507D501271F62D4F8883043F00103B6
:101E1000C4F8883083070AD5CB0708D02768022387
:101E20003B62D4F8883043F00403C4F88830430799
:101E30000AD5CB0708D0276804233B62D4F8883042
:101E400043F00203C4F8883003070CD502F02003E6
:101E5000334308D0266808233362D4F8883043F02F
:101E60000803C4F88830D4F88830002B3CD08006B2
:101E700009D502F0200001F08051084303D0E16E43
:101E800009B120468847D4F8880021688968490646
:101E900001D400072AD5204601F0EEFB20688168B6
:101EA00049061ED5816821F040018160A06FC0B154
:101EB0002F498163A06FFEF74DFC002814D0A06F5E
:101EC000816B0AE0860617D502F0200601F08057E4
:101ED0003E4311D0E16E24E02046BDE8F0410847C2
:101EE0000AE02046FFF777FFBDE8F0812046FFF7C4
:101EF00072FFC4F88850F7E7C60209D54E0207D52D
:101F00004FF4801018622046BDE8F041FFF762BF31
:101F1000060609D502F0800601F400010E4303D045
:101F2000216F0029D8D1DFE741060DD551060BD529
:101F30001968204621F0400119602021C4F8801062
:101F4000256700F07BF9CFE7010206D5510004D5E3
:101F50002046BDE8F041FFF73CBFC001C4D5002AD0
:101F6000C2DA2046BDE8F041FFF7E6BE01000010EE
:101F70006336000810B5040003D0D4F8800010B117
:101F800007E0012010BD002084F87C00204600F00E
:101F900027F82420C4F880002068016821F001019E
:101FA0000160204601F07AFC0128EBD0A06A10B154
:101FB000204601F0C3FA2068416821F49041416055
:101FC0002068816821F02A0181602068016841F061
:101FD000010101602046BDE8104001F013BB000084
:101FE00010B586B0044614216846FEF7B2FA1749C8
:101FF0002068884227D11648016E41F4804101666D
:10200000016E01F480410591C16C41F00101C16490
:10201000C06C694600F0010005904FF4C06000906C
:1020200002200190002002900390072004904FF0BE
:102030009040FEF7DDFB002211462520FEF730FD23
:102040002520FEF71FFD06B010BD0000003801403E
:102050000010024070B5D0F88430202B6DD1B9B19A
:10206000B2B190F87C30012B67D0012380F87C302E
:102070008165A0F85C20A0F85E200021C16683681D
:102080004FF48056FF24B34207D1036913B11CE01B
:10209000012070BD40F2FF131DE07F259BB1B3F11D
:1020A000805F15D0A0F86010C0F888102223C0F817
:1020B000843003689C6844F001049C60436EB3F173
:1020C000005F0ED027E0036943B9A0F86040EBE75A
:1020D00003691BB13F23A0F86030E5E7A0F860502A
:1020E000E2E7B0F86830934215D88268B24201D175
:1020F000026972B1124AC26680F87C1001680A68EF
:1021000042F480720A600068816841F08051816009
:102110000FE00C4AEFE78268B24201D1026952B186
:10212000094AC26680F87C100068016841F4907129
:102130000160002070BD054AF3E7022070BD000079
:10214000FD370008FD3600089D3700089D36000861
:1021500008480168084800F11C038161817A027B0C
:102160005A54491C817200F10C0101220348FFF707
:1021700071BF00003400002000000020D4000020C7
:102180002DE9F8430446D0F880001F4616460D4658
:10219000202851D1DDB1D6B194F87C0001284BD074
:1021A000012084F87C004FF00008C4F888802120CA
:1021B000C4F880001834FEF709FCA6878146E6873C
:1021C00054F8100C183CB0F5805F03D004E00120F7
:1021D000BDE8F883206910B12E46002510E00026E6
:1021E0000EE08021204601F02CFFB8B9C6B116F8E8
:1021F000010B21688862B4F85600401EA4F856000E
:10220000B4F856004B464FF0000200970028E8D182
:102210004FF04001204601F014FF30B10320D7E712
:1022200035F8020BC0F30800E3E72020C4F8800073
:1022300084F87C800020CBE70220C9E77047FEE7E6
:10224000094902784B79303A9A420BD142788B791E
:10225000303A9A4206D18078C9793038884201D123
:1022600001207047002070470000002070B52F4DFE
:102270002F4C0A21AA7820780026012A0AD140B9D9
:102280006278402A0AD0521CB2FBF1F301FB132200
:102290006270AE706A79012A02D00CE06670F8E7CD
:1022A00040B9A278402A0AD0521CB2FBF1F301FBDC
:1022B0001322A2706E712A7A012A02D00CE0A67055
:1022C000F8E740B9E278402A0BD0521CB2FBF1F398
:1022D00001FB1321E1702E72E97A012925D110B199
:1022E00022E0E670F7E7002000F054F860786279A9
:1022F0000121904209D1A078A279904205D1E078DD
:10230000E279904201D121700EE040206070A0700F
:10231000E070207A401CC0B22072032804D1054826
:102320006172006860612672EE7270BD600100200B
:10233000000000203400002000B585B0142168465C
:10234000FEF707F94FF6FF70009000200321CDE95A
:102350000201019069460248FEF74AFA05B000BD45
:102360000008004800B585B014216846FEF7F1F872
:102370004FF6FF7000900120019003200390002091
:10238000029069460248FEF733FA05B000BD00002E
:102390000008004870B5002406462146204600F09B
:1023A000A1F900F0DFF94FF49635304600F0AEF9B0
:1023B000641CAC42F9D370BD30B587B014216846B7
:1023C000FEF7C7F81E48C16C41F00401C164C16C3E
:1023D00001F004010591C16C41F00101C164C16CBF
:1023E00001F001010591C16C41F00201C164C06CB2
:1023F000012500F0020005904FF44870CDE900057A
:1024000000240394694602940E48FEF7F1F928026D
:1024100003940090CDE901544FF090446946204662
:10242000FEF7E6F9FFF79EFFA06940F48070A06117
:1024300004481830016841F40871016007B030BDEC
:102440000010024000040048203AD2B2034B02EBD5
:10245000420203EB021200F019B800005A410008D2
:10246000F0B50E460746002540F23F1407E021462E
:102470003846FFF7E9FF103C6D1CA4B2761C327899
:10248000002A01D0142DF2D3F0BD00002DE9F04751
:1024900091468A460026044600F024F9DFF8408081
:1024A000012700BF00F05EF95FF0000539F8160063
:1024B00007FA05F10842404601D1408800E0008853
:1024C00000F024F96D1C102DF0D3641CE4B25146C9
:1024D000204600F007F9761C182EE3D3BDE8F087FC
:1024E0002400002010B5FFF767FF002000F0B2F8CD
:1024F000084CA080A088A0F50241303906D000F039
:10250000B3FB002000F0A6F8A08010BD00F023FB74
:10251000F7E700002400002010B5234C86B0207897
:10252000A0B122A11820FFF79BFFE28924A16846F1
:10253000FDF742FF69464820FFF792FF227924A168
:102540006846FDF739FF6946602022E024A1182083
:10255000FFF786FF6278402A1FD026A16846FDF764
:102560002BFF69464820FFF77BFFA278402A16D050
:1025700024A16846FDF720FF69466020FFF770FF41
:10258000E278402A0DD023A16846FDF715FF694681
:102590007820FFF765FF06B010BD22A1DEE725A178
:1025A000E7E728A1F0E7000000000020202020201D
:1025B00020202020535441202020202020202000B3
:1025C00020202020463A2564487A20202000000060
:1025D00020202020443A25642525202020000000CA
:1025E0002020202020202020505344202020202064
:1025F000202020002020202042313A256420202065
:10260000202000002020202042323A256420202073
:10261000202000002020202042333A256420202062
:10262000202000002020202042313A256320202055
:10263000202000002020202042323A256320202044
:10264000202000002020202042333A256320202033
:102650002020000070B51D490A6842F400720A602B
:102660000A6842F480720A60184C103C226842F0FA
:1026700020022260164A1060086840F020000860BE
:1026800000BF00BF00BF206840F02000206020682D
:1026900040F480702060FFF74FFE4FF09041886A51
:1026A00040F48070886200BF00BF00BF0848001F70
:1026B000006885B2886940F480708861FFF752FE37
:1026C000206840F400702060284670BD280400484F
:1026D0001408004801B5BDF800000149488008BD54
:1026E0002400002010B50C460146202000F068F8B8
:1026F0002146BDE81040212000F062B801B5BDF8C8
:1027000000000149088008BD24000020134A116818
:1027100041F400711160114910390B6843F4807362
:102720000B600B6843F020030B600D4B18601068C2
:1027300040F02000106000BF00BF00BF086840F0FC
:1027400020000860086840F48070086000BF00BF87
:1027500000BF086840F40070086070472804004813
:10276000140800481449086840F4007008600868BC
:1027700040F48070086010481038026842F020026F
:1027800002600E4B22221A600A6842F020020A60A0
:1027900000BF00BF00BF016841F020010160016877
:1027A00041F48071016000BF00BF00BF016841F4C7
:1027B00000710160704700002804004814080048B8
:1027C000184B10B51A6842F400721A601A6842F485
:1027D00080721A60134A103A146844F0200414609E
:1027E000114C2060186840F02000186000BF00BF46
:1027F00000BF106840F020001060106840F4807046
:1028000010602160186840F02000186000BF00BF11
:1028100000BF106840F020001060106840F4807025
:10282000106010BD280400481408004870B5124D0F
:10283000044601224FF47F412846FEF7C2F80F4EAE
:10284000012204213046FEF7BCF800220421304664
:10285000FEF7B7F8210200222846FEF7B2F801225F
:1028600004213046FEF7ADF83046BDE87040002246
:102870000421FEF7A6B8000000080048000C00483C
:102880000B490A680B484369D21A642A0ED30968B7
:102890004161417A0029C17A02D081F0020101E050
:1028A00021F00201C172C8B2FFF7C0BF704700003B
:1028B00034000020000000202DE9F04F87B01421E3
:1028C0006846FDF746FE4048C16C41F00401C16412
:1028D000C16C01F004010591C16C41F02001C1649B
:1028E000C16C01F020010591C16C41F00101C1648E
:1028F000C16C01F001010591C16C41F00201C1649C
:10290000C16C01F002010591C16C41F00801C16484
:10291000C06CDFF8B88000F008004FF6FF74059037
:10292000002221464046FEF74CF84FF480764FF0E7
:102930009049002231464846FEF743F8DFF890A060
:10294000002204215046FEF73CF8DFF888B04FF42F
:102950004877002239465846FEF733F80125CDE97D
:10296000004500240294694640460394FDF740FF69
:10297000CDE90054694648460294FDF739FF072027
:10298000CDE90004694658460294FDF731FF0096F0
:10299000CDE90154694648460394FDF729FF042018
:1029A0000090CDE90154694650460394FDF720FF9D
:1029B0000097CDE90154694658460394FDF718FF86
:1029C00007B0BDE8F08F000000100240000800488A
:1029D000000C00480004004810B58AB00024079499
:1029E00008941C2168460994FDF7B3FD15484FF083
:1029F000804101604F21C0E9011440F2E731C0E994
:102A000003148461FFF77CF808B1FDF7A2FE079478
:102A100007A90C480994FEF781FD08B1FDF799FE5E
:102A20006020CDE90004029404226946054804941C
:102A3000FEF7D7FF08B1FDF78CFE0248FEF7AAFFAC
:102A40000AB010BD3C00002010B588B00024174823
:102A500000940194029403940494059412490694FA
:102A600001604F21C0E9011442F20F71C0E9031463
:102A70008461FEF7A2FD08B1FDF76BFE4FF48050B4
:102A8000009069460948FEF707FE08B1FDF761FEB0
:102A9000049404A905480694FEF740FD002801D0DF
:102AA000FDF757FE08B010BD000800408800002068
:102AB000184810B5164901604FF4165141600021C5
:102AC00081600C22C160C0E904128161C1610162B0
:102AD00041628162FFF74EFA08B1FDF73AFE00212C
:102AE0000C48FFF750F908B1FDF733FE0021094803
:102AF000FFF723F908B1FDF72CFE0648FFF7FDF8B4
:102B0000002803D0BDE81040FDF723BE10BD000033
:102B100000380140D4000020FEE770470C484FF019
:102B20008041322203784BB140F2F313CB624A6307
:102B30004FF4FA61C18164210171704740F2E733BB
:102B4000CB624FF4FA734B635900C1810271704735
:102B500000000020704730B501210020FFF730FE53
:102B60004FF47A70FDF7E7FD00210120FFF728FE02
:102B700041F290711020FFF723FE4FF41C516020AA
:102B8000FFF71EFE01216120FFF71AFE02214620F9
:102B9000FFF716FE48F210011320FFF711FE48F26E
:102BA000FE011220FFF70CFE4FF4A0610220FFF798
:102BB00007FE41F230010320FFF702FE40F203342A
:102BC00021463020FFF7FCFD21463120FFF7F8FDBC
:102BD00021463220FFF7F4FDE51E29463320FFF79A
:102BE000EFFD03213420FFF7EBFD21463520FFF7F1
:102BF000E7FD14213620FFF7E3FD21463720FFF7DC
:102C0000DFFD21463820FFF7DBFD21463920FFF7A5
:102C1000D7FD29463A20FFF7D3FD03213B20FFF7DC
:102C2000CFFD21463C20FFF7CBFD4FF4A0513D20C6
:102C3000FFF7C6FD4FF400719220FFF7C1FD21465A
:102C40009320FFF7BDFD40F60D019020FFF7B8FD82
:102C500041F218010320FFF7B3FDBDE8304040F218
:102C600073110720FFF7ACBD10B543F20801E32054
:102C7000FFF7A6FD1221E720FFF7A2FD41F2312167
:102C8000EF20FFF79DFD00210120FFF799FD4FF494
:102C9000E0610220FFF794FD41F230010320FFF7CD
:102CA0008FFD00210420FFF78BFD40F20721082053
:102CB000FFF786FD00210920FFF782FD00210A2091
:102CC000FFF77EFD00210C20FFF77AFD00210D208B
:102CD000FFF776FD00210F20FFF772FD0021102085
:102CE000FFF76EFD07211120FFF76AFD002112207A
:102CF000FFF766FD00211320FFF762FDC820FDF7F6
:102D000065FD41F290611020FFF75AFD40F2272146
:102D10001120FFF755FD3220FDF758FD1D2112202F
:102D2000FFF74EFD3220FDF751FD4FF400611320F7
:102D3000FFF746FD14212920FFF742FD0B212B2030
:102D4000FFF73EFD3220FDF741FD00212020FFF777
:102D500037FD00212120FFF733FD07213020FFF749
:102D60002FFD40F207713120FFF72AFD06213220A6
:102D7000FFF726FD40F204713520FFF721FD41F6F3
:102D800004713620FFF71CFD04213720FFF718FDE2
:102D900000213820FFF714FD40F206713920FFF7BB
:102DA0000FFD40F201713C20FFF70AFD0F213D208D
:102DB000FFF706FD00215020FFF702FDEF21512013
:102DC000FFF7FEFC00215220FFF7FAFC40F23F1112
:102DD0005320FFF7F5FC4FF41C516020FFF7F0FC87
:102DE00001216120FFF7ECFC00216A20FFF7E8FCDD
:102DF00000218020FFF7E4FC00218120FFF7E0FCA8
:102E000000218220FFF7DCFC00218320FFF7D8FCA3
:102E100000218420FFF7D4FC00218520FFF7D0FC9F
:102E200010219020FFF7CCFC00219220FFF7C8FC76
:102E300003219320FFF7C4FC4FF488719520FFF71E
:102E4000BFFC00219720FFF7BBFC00219820FFF773
:102E5000B7FC41F218010320FFF7B2FCBDE81040B7
:102E600040F273110720FFF7ABBC0000234810B5F8
:102E7000016886B0224CA269891A32293CD30068C5
:102E8000A061A07A072833D104F11C0000F057F8A4
:102E9000012801D01BA106E019481C30FFF7D0F92A
:102EA00001280DD01AA16846FDF786FA6846FDF79D
:102EB00031FB82B2322369461848FFF761F917E007
:102EC00017A16846FDF778FA6846FDF723FB82B242
:102ED000322369461148FFF753F909481C3001793C
:102EE0003039617141793039A17180793038E071C0
:102EF0000020A072E061206206B010BD3400002006
:102F0000000000206572726F72310D0A000000002F
:102F10006572726F72330D0A00000000D400002049
:102F200073756363657366756C2121636F646520D7
:102F30006973206368616E67650D0A0070470178E8
:102F40003039092918D841783039092914D88178BD
:102F50003039092910D8C1782D290DD1017930399E
:102F6000092909D841793039092905D880793038BB
:102F7000092801D8012070470020704770B5FDF77F
:102F80002BFD144C41F2883600252078A8B1E07A58
:102F900040F00100E072218A491C89B22182B142CD
:102FA0000BD320F00100E0720020FFF7F3F9257049
:102FB00040206070A070E0702582607A002807D001
:102FC000608A401C80B26082B04201D36572658223
:102FD00070BD00000000002010B5A4B03821684684
:102FE000FDF7B7FA14211FA8FDF7B3FA44210EA884
:102FF000FDF7AFFA4FF40070FDF784FD0220C10128
:103000000391402104910090079008901421CDE98C
:1030100009010B900C900D906846FEF75FF80F20A9
:103020001F9000240320CDE92004014622941FA80C
:103030002394FDF709FF0120CDE90E040EA8FDF74A
:10304000BFFD24B010BD00000548016841F47001C7
:10305000016003494FF0006080390860704700004C
:1030600088ED00E00148FEF796BB000088000020D4
:103070002DE9F0430268234B234D244E244C4FF09E
:103080008049984207D0484505D0A84203D0B042B5
:1030900001D0A04203D122F070074A683A431D4F85
:1030A000DFF874C0DFF8748098420DD048450BD02B
:1030B000A84209D0B04207D0A04205D0B84203D000
:1030C000604501D0404503D122F44075CA682A43C7
:1030D0004D6922F080022A4302608A68C2620A684F
:1030E0008262984207D0A04205D0B84203D0604522
:1030F00001D0404501D10969016301214161BDE869
:10310000F0830000002C0140000400400008004053
:1031100000340140004001400044014000480140AB
:1031200010B501F01F030121046A99408C43046229
:10313000016A9A401143016210BD10B5846842EAE9
:10314000032224F47F440A432243826010BD00001E
:103150008268034B1A400A4342F0070181607047BE
:103160008FFFCFFF2DE9F043026A22F001020262D5
:10317000056A436882691C4C25F0020522400C68F0
:1031800022F0030214438A68194E2A43174D194F3F
:10319000DFF864C0DFF86490A84207D0B04205D0E1
:1031A000B84203D0604501D0484506D122F0080856
:1031B000CA6842EA080222F00402A84207D0B042DC
:1031C00005D0B84203D0604501D0484505D14D69CE
:1031D00023F440731D438B692B434360846149682A
:1031E00041630262BDE8F0838FFFFEFF002C0140C7
:1031F00000340140004001400044014000480140CB
:10320000F0B5026A22F010020262056A4268836920
:10321000194C1B4E23400C6823F4407343EA0424EA
:1032200025F020038D6843EA0513144DA84201D010
:10323000B04206D1CF6823F0800343EA071323F09E
:103240004003A8420AD0B04208D00E4DA84205D093
:103250000D4DA84202D00D4DA84207D14D6922F470
:10326000406242EA85028D6942EA850242608461D9
:10327000496881630362F0BDFF8FFFFE002C0140AF
:10328000003401400040014000440140004801403A
:10329000F0B5026A22F480720262056A4368C2696C
:1032A000194C1B4E22400C6822F00302144325F4F3
:1032B00000728D6842EA0522144DA84201D0B04246
:1032C00006D1CF6822F4006242EA072222F480622B
:1032D000A8420AD0B04208D00E4DA84205D00E4DEB
:1032E000A84202D00D4DA84207D14D6923F44053A6
:1032F00043EA05138D6943EA05134360C4614968D5
:10330000C1630262F0BD00008FFFFEFF002C014090
:1033100000340140004001400044014000480140A9
:10332000F0B5026A22F480520262056A4268C369FB
:10333000194C1B4E23400C6823F4407343EA0424C9
:1033400025F400538D6843EA0533144DA84201D09B
:10335000B04206D1CF6823F4004343EA073323F495
:103360008043A8420AD0B04208D00E4DA84205D0F2
:103370000D4DA84202D00D4DA84207D14D6922F44F
:10338000404242EA85128D6942EA85124260C46178
:10339000496801640362F0BDFF8FFFFE002C01400D
:1033A0000034014000400140004401400048014019
:1033B00030B5026A22F480320262046A4268036D08
:1033C000114D2B400D681D4324F400330C8943EA52
:1033D00004430E4CA0420BD00D4CA04208D00D4C23
:1033E000A04205D00C4CA04202D00C4CA04204D10B
:1033F0004C6922F4803242EA042242600565496841
:103400008164036230BD00008FFFFEFF002C01408D
:1034100000340140004001400044014000480140A8
:1034200030B5026A22F480120262046A4268036DB7
:10343000114D24F400142B400D6843EA05230D8937
:1034400044EA05540D4DA8420BD00D4DA84208D0BA
:103450000C4DA84205D00C4DA84202D00B4DA842FD
:1034600004D14D6922F4802242EA8522426003653C
:103470004968C164046230BDFF8FFFFE002C01402B
:103480000034014000400140004401400048014038
:1034900010B5036A046A24F001040462846924F00C
:1034A000F00444EA021423F00A020A43846102622F
:1034B00010BD10B5036A23F0100303628369046A28
:1034C00023F4704343EA023224F0A00343EA0111DB
:1034D0008261016210BD00003FB514A1D1E9002155
:1034E000CDE9002113A2D2E90012CDE90212416E0A
:1034F000B9B1026891689268C1F34261520F1DF838
:103500000240E50002ACA25CB5FBF2F2A0F86A2032
:103510001DF80120615CD200B2FBF1F1A0F8681047
:103520003FBD0121A0F86A10F8E700000101010386
:1035300007010000080402040801010190F82810A6
:10354000C90706D001684A68C36A22F400321A43E8
:103550004A6090F82810890706D501684A68036B0D
:1035600022F480321A434A6090F82810490706D5A1
:1035700001684A68436B22F480221A434A6090F83B
:103580002810090706D501684A68836B22F40042B7
:103590001A434A6090F82810C90606D501688A685F
:1035A000C36B22F480521A438A6090F8281089066F
:1035B00006D501688A68036C22F400521A438A60B7
:1035C00090F82810490611D501684A68436C22F426
:1035D00080121A434A60416CB1F5801F06D1016820
:1035E0004A68836C22F4C0021A434A6090F828109B
:1035F000090606D501684A68C06C22F4002202431D
:103600004A607047F8B500260446C0F88860FDF7A8
:10361000DDF90546206800686FF07E47000708D591
:103620002B4600224FF400112046009700F009FDC0
:1036300060B92068006840070AD52B4600224FF485
:1036400080012046009700F0FCFC08B10320F8BD83
:103650002020C4F88000C4F8840084F87C60002036
:10366000F8BD10B5806A0021A0F85E10A0F85610D1
:10367000FEF7B1FB10BD000001680A6822F49072E9
:103680000A6001688A68044B1A408A602021C0F8E9
:1036900084100021C1667047FEFFFFEF10B5B0F83F
:1036A0006020D0F884300168222B04D0886940F073
:1036B0000800886110BD496A836D11401980816DD1
:1036C000891C8165B0F85E10491EA0F85E10B0F844
:1036D0005E100029EED101680A6822F490720A6037
:1036E00001688A6822F001028A602021C0F88410F3
:1036F0000021C166FEF72CFD10BD000070B5044628
:10370000B0F86060D0F88400222805D02068816974
:1037100041F00801816170BDB4F8685023E0206871
:10372000406AA16D30400880A06D801CA065B4F88F
:103730005E00401EA4F85E00B4F85E0088B9206800
:10374000016821F48071016020688168114A11408C
:1037500081602020C4F884000020E0662046FEF747
:10376000F7FC6D1EADB2002DD9D1B4F85E00002873
:10377000D1D0B4F868108142CDD92068816821F099
:10378000805181600448E0662068016841F02001B2
:10379000016070BDFEFFFFEF9D36000810B5B0F868
:1037A0006020D0F884300168222B04D0886940F072
:1037B0000800886110BD496A1140826D1170816DE9
:1037C000491C8165B0F85E10491EA0F85E10B0F883
:1037D0005E100029EED101680A6822F490720A6036
:1037E00001688A6822F001028A602021C0F88410F2
:1037F0000021C166FEF7ACFC10BD000070B50446A8
:10380000B0F86060D0F88400222805D02068816973
:1038100041F00801816170BDB4F8685023E0206870
:10382000406AA16D30400870A06D401CA065B4F8DE
:103830005E00401EA4F85E00B4F85E0088B92068FF
:10384000016821F48071016020688168114A11408B
:1038500081602020C4F884000020E0662046FEF746
:1038600077FC6D1EADB2002DD9D1B4F85E000028F2
:10387000D1D0B4F868108142CDD92068816821F098
:10388000805181600448E0662068016841F02001B1
:10389000016070BDFEFFFFEF9D3700082DE9F05F6E
:1038A0000446016880682369E56918436369002755
:1038B0002B431843636EFA4A03430868F94D2840C6
:1038C0001843086020684168E36821F440511943B7
:1038D00041602168A069914201D0236A18438B6836
:1038E000F14D2B4003438B602068C16A636A21F06D
:1038F0000F011943C162ED4B2068ED4998420DD18B
:10390000D1F8881011F0030106D001295AD00229FC
:1039100056D003293FD157E001253DE0E54B9842C1
:103920000BD1D1F8881011F00C0147D0042949D0EF
:10393000082945D00C292ED146E0DF4B98420BD107
:10394000D1F8881011F0300138D010293AD0202950
:1039500036D030291FD137E0D84B98420BD1D1F85F
:10396000881011F0C00129D040292BD0802927D000
:10397000C02910D128E090420DD1D1F8881011F45F
:1039800040611BD0B1F5806F1CD0B1F5006F17D02E
:10399000B1F5406F18D01025DFF824A34FF48076DE
:1039A0004FF000094FF4004B90426ED175B1022DDB
:1039B00029D0042D59D0082D68D176E00025EBE7F9
:1039C0000225E9E70425E7E70825E5E7FDF72AFBF7
:1039D0004DE0012851D0022851D0032851D00428AD
:1039E00051D0052853D0062853D0072853D0082893
:1039F00053D0092853D00A2853D00B2853D03AE08B
:103A0000B1FBF0F06CE0606AA8B1012817D0022881
:103A100017D0032817D0042817D0052817D0062858
:103A200017D0072817D0082817D0092817D00A2838
:103A300017D00B2817D00120BAFBF0F050E002207D
:103A4000FAE70420F8E70620F6E70820F4E70A2062
:103A5000F2E70C20F0E71020EEE72020ECE7402012
:103A6000EAE78020E8E73046E6E7FDF7FFFA01469F
:103A7000606A0028ADD10120C2E70220C0E704201F
:103A8000BEE70620BCE70820BAE761E14AE00A2069
:103A9000B6E70C20B4E71020B2E72020B0E74020C2
:103AA000AEE78020ACE73046AAE7606AA8B10128FB
:103AB00022D0022822D0032822D0042822D0052890
:103AC00022D0062822D0072822D0082822D0092870
:103AD00022D00A2822D00B2822D00120BBFBF0F0F4
:103AE000002820D06168884601EB4101814219D845
:103AF000B0EB083F16D817E00220EFE70420EDE70F
:103B00000620EBE70820E9E70A20E7E70C20E5E7D5
:103B10001020E3E72020E1E74020DFE78020DDE719
:103B20003046DBE7012739E27DB3022D61D0042D59
:103B30007DD0082DF6D1606AA8B1012878D002287E
:103B400077D0032876D0042875D0052874D00628AD
:103B500073D0072872D0082871D0092870D00A289D
:103B60006FD00B2800D0012632464D460023584620
:103B70000021FCF7A9FB090241EA106102024FEAA9
:103B8000580010186941424670E0FFE7FDF74AFA15
:103B90000146606AA8B1012817D0022817D003286F
:103BA00017D0042817D0052817D0062817D00728C3
:103BB00017D0082817D0092817D00A2817D00B28A3
:103BC00000D0012632464D468CE00226FAE7042654
:103BD000F8E70626F6E70826F4E70A26F2E70C26B9
:103BE000F0E71026EEE72026ECE74026EAE78026FD
:103BF000E8E7606AA8B1012824D0022824D003286D
:103C000024D0042824D0052824D0062824D007282E
:103C100024D0082824D0092824D00A2824D00B280E
:103C200000D0012632464D4600235046A0E726E04C
:103C30007AE07BE07CE07DE07EE07FE080E081E098
:103C400082E083E00226EDE70426EBE70626E9E7BB
:103C50000826E7E70A26E5E70C26E3E71026E1E772
:103C60002026DFE74026DDE78026DBE70023FCF7A0
:103C70002BFB144AA0F54071914271D952E7FDF730
:103C8000F5F90146606A50B3012839D0022839D0CD
:103C9000032839D0042839D0052839D0062813E064
:103CA00000800040F369FFCFFFF4FF1100380140AE
:103CB000001002400044004000480040004C00401A
:103CC0000024F400FFFC0F0024D0072824D008288B
:103CD00024D0092824D00A2824D00B2800D001267B
:103CE0004D463246002308461946FCF7EDFA090214
:103CF000626841EA10610302500818186941B5E78B
:103D00000226EDE70426EBE70626E9E70826E7E7C3
:103D10000A26E5E70C26E3E71026E1E72026DFE7A1
:103D20004026DDE78026DBE702261DE704261BE7A9
:103D3000062619E7082617E70A2615E70C2613E7D3
:103D4000102611E720260FE740260DE780260BE717
:103D5000E0694FF6EF78584570D1092D8ED200E01A
:103D60001AE1DFE805F006093C058005050583003A
:103D7000D8E6FDF757F901E0FDF766F90146606AFC
:103D8000A8B1012815D0022815D0032815D0042881
:103D900015D0052815D0062815D0072815D00828D5
:103DA00015D0092815D00A2815D00B2814D00126C3
:103DB00012E0022610E004260EE006260CE008269B
:103DC0000AE00A2608E00C2606E0102604E0202679
:103DD00002E0402600E08026B1FBF6F01AE0606ABF
:103DE000A8B101282BD002282BD003282BD00428DF
:103DF0002BD005282BD006282BD007282BD008281D
:103E00002BD009282BD00A282BD00B2800D0012634
:103E1000BAFBF6F04100606801EB5001B1FBF0F035
:103E200080B2A0F110014145A2D84FF6F0710140D7
:103E3000C0F3420001432068C160AFE046E00226C3
:103E4000E6E70426E4E70626E2E70826E0E70A2696
:103E5000DEE70C26DCE71026DAE72026D8E7402646
:103E6000D6E78026D4E7FDF701F987E7606AA8B1B5
:103E7000012817D0022817D0032817D0042817D0FC
:103E8000052817D0062817D0072817D0082817D0DC
:103E9000092817D00A2817D00B2800D00126BBFB11
:103EA000F6F0B7E70226FAE70426F8E70626F6E773
:103EB0000826F4E70A26F2E70C26F0E71026EEE7DC
:103EC0002026ECE74026EAE78026E8E7092DBFF444
:103ED000D5AEDFE805F006093C058305050586003B
:103EE00020E6FDF79FF801E0FDF7AEF80146606AB5
:103EF000A8B1012815D0022815D0032815D0042810
:103F000015D0052815D0062815D0072815D0082863
:103F100015D0092815D00A2815D00B2814D0012651
:103F200012E0022610E004260EE006260CE0082629
:103F30000AE00A2608E00C2606E0102604E0202607
:103F400002E0402600E08026B1FBF6F11AE0606A4C
:103F5000A8B101282ED002282ED003282ED0042864
:103F60002ED005282ED006282ED007282ED008289F
:103F70002ED009282ED00A282ED00B2800D00126BA
:103F8000BAFBF6F1606801EB5001B1FBF0F080B2D2
:103F9000A0F110014145A3D82168C8600120A4F810
:103FA0006A0024F8680F3846C4F80490C4F80890F2
:103FB000BDE8F09F0226E3E70426E1E70626DFE7F7
:103FC0000826DDE70A26DBE70C26D9E71026D7E727
:103FD0002026D5E74026D3E78026D1E7FDF746F82F
:103FE00084E7606AA8B1012817D0022817D00328F7
:103FF00017D0042817D0052817D0062817D007286F
:1040000017D0082817D0092817D00A2817D00B284E
:1040100000D00126BBFBF6F1B4E70226FAE704263E
:10402000F8E70626F6E70826F4E70A26F2E70C2664
:10403000F0E71026EEE72026ECE74026EAE78026A8
:10404000E8E72DE9F041984617460E460446069DDE
:1040500008E0681C06D0FCF7B9FCA0EB0800A842F9
:104060000BD855B12068C06936EA000019D000208D
:10407000B842EED00020BDE8F0812068016821F44C
:10408000D07101602068816821F0010181602020E9
:10409000C4F88000C4F88400002084F87C00032069
:1040A000E9E70120E4E700000148FDF795BE0000C4
:1040B000D4000020FEE70907090E002804DB00F108
:1040C000E02080F80014704700F00F0000F1E020BD
:1040D00080F8141D70470000FCF786FCFEF77CFF9B
:1040E000FEF7EAFBFEF778FCFEF7AEFCFEF7E0FC1D
:1040F000FEF7F8F91248FDF7AFFA04211148FDF771
:1041000045FD012210491148FDF7A4FF4FF4FA7054
:10411000010748630020FEF73DF90020FEF7DAFAB8
:104120004FF6FF70FEF7EAFAFEF7F6F9FEF79EF893
:10413000FEF7F4FCFEF7A4FBFEF798FEF4E70000A0
:10414000880000203C0000200C000020D40000204B
:104150004FF04070E1EE100A7047000000000000D0
:10416000000000000000000000000000000000004F
:10417000000000000000000000000000000000003F
:10418000000000000000000000000000800180012D
:104190008001800180018001800180018001800117
:1041A000800180018001000000008001800100008A
:1041B0000000000000000000000000000000CC0033
:1041C000CC00CC00CC00CC00CC00000000000000F3
:1041D00000000000000000000000000000000000DF
:1041E00000000000000000000000000000000000CF
:1041F000000000000000600C600C600C300630060F
:10420000FE1FFE1F300638071803FE1FFE1F18038F
:1042100018038C018C018C01000000008000E00379
:10422000F80F9C0E8C1C8C188C009800F801E0078D
:10423000800E801C8C188C189C18B80CF00FE003B2
:10424000800080000000000000000000000000006E
:104250000E181B0C110C11061106110311039B0102
:104260008E01C038C06C604460443044304418440F
:10427000186C0C380000000000000000E001F003A2
:104280003807180618063003F001F000F8009C31DA
:104290000E33061E061C061C063FFC73F0210000B0
:1042A00000000000000000000000000000000C0002
:1042B0000C000C000C000C000C00000000000000C2
:1042C00000000000000000000000000000000000EE
:1042D00000000000000000000000000000020003D9
:1042E0008001C000C000600060003000300030007D
:1042F0003000300030003000300060006000C0004E
:10430000C0008001000300020000000020006000E7
:10431000C0008001800100030003000600060006C3
:1043200000060006000600060006000300038001E8
:104330008001C000600020000000000000000000BC
:10434000000000000000C000C000D806F807E0012F
:1043500030033807000000000000000000000000EB
:10436000000000000000000000000000000000004D
:1043700000000000000080018001800180018001B8
:10438000FC3FFC3F80018001800180018001000032
:10439000000000000000000000000000000000001D
:1043A000000000000000000000000000000000000D
:1043B00000000000000000000000000080018001FB
:1043C000000100018000000000000000000000006B
:1043D00000000000000000000000000000000000DD
:1043E0000000E007E00700000000000000000000FF
:1043F00000000000000000000000000000000000BD
:1044000000000000000000000000000000000000AC
:10441000000000000000000000000000C000C0001C
:10442000000000000000000000000000000C000C74
:10443000000600060006000300030003800380015D
:1044400080018001C000C000C0006000600000006A
:10445000000000000000000000000000E003F00782
:10446000380E180C0C180C180C180C180C180C180A
:104470000C180C180C18180C380EF007E00300008C
:1044800000000000000000000000000000018001AA
:10449000C001F00198018801800180018001800144
:1044A0008001800180018001800180018001000085
:1044B000000000000000000000000000E003F80F12
:1044C000180C0C180C1800180018000C000600033B
:1044D0008001C000600030001800FC1FFC1F0000BD
:1044E000000000000000000000000000E001F807EC
:1044F000180E0C0C0C0C000C0006C003C007000CBE
:10450000001800180C180C18180CF807E00300002D
:10451000000000000000000000000000000C000E81
:10452000000F000F800DC00C600C600C300C180CDC
:104530000C0CFC3FFC3F000C000C000C000C0000BD
:10454000000000000000000000000000F80FF80F5D
:10455000180018000C00EC03FC071C0E001C0018CF
:10456000001800180C181C0C180EF807E0030000C7
:10457000000000000000000000000000C007F00F75
:10458000381C181818000C00CC03EC0F3C0E1C1C37
:104590000C180C180C18181C380EF007E00300005B
:1045A000000000000000000000000000FC1FFC1FD5
:1045B000000C00060006000380038001C001C0005B
:1045C000E00060006000700030003000300000004B
:1045D000000000000000000000000000E003F00701
:1045E000380E180C180C180C3806F007F007180CC9
:1045F0000C180C180C180C18380CF80FE0030000FD
:10460000000000000000000000000000E003F007D0
:10461000380E1C0C0C180C180C181C1C381EF81B1F
:10462000E0190018000C000C1C0EF807F001000047
:10463000000000000000000000000000000000007A
:104640000000000000008001800100000000000068
:104650000000000000000000000080018001000058
:10466000000000000000000000000000000000004A
:104670000000000000008001800100000000000038
:104680000000000000000000000080018001000127
:104690000001800000000000000000000000000099
:1046A000000000000000000000000010001C800F4F
:1046B000E003F8001800F800E003800F001C001071
:1046C00000000000000000000000000000000000EA
:1046D00000000000000000000000F81F00000000C3
:1046E0000000F81F000000000000000000000000B3
:1046F00000000000000000000000000000000000BA
:104700000000000000000000000008003800F00178
:10471000C007001F0018001FC007F0013800080084
:10472000000000000000000000000000E003F80F9F
:10473000180C0C180C180018000C0006000380015F
:10474000C000C000C00000000000C000C0000000A9
:104750000000000000000000000000000000E00772
:1047600018180420C229224A114409440944094462
:1047700009221113E20C024004201818E00700007F
:104780000000000000000000000000008003800323
:10479000C006C006C006600C600C30183018301817
:1047A000F83FF83F1C700C600C6006C006C00000AB
:1047B000000000000000000000000000FC03FC0FEF
:1047C0000C0C0C180C180C180C0CFC07FC0F0C181B
:1047D0000C300C300C300C300C18FC1FFC070000A7
:1047E000000000000000000000000000C007F01FF3
:1047F00038381C300C700660060006000600060003
:104800000600060006600C701C30F01FE007000078
:10481000000000000000000000000000FE03FE0F8A
:10482000060E06180618063006300630063006302A
:104830000630063006180618060EFE0FFE030000AE
:10484000000000000000000000000000FC3FFC3FF2
:104850000C000C000C000C000C00FC1FFC1F0C00DA
:104860000C000C000C000C000C00FC3FFC3F000096
:10487000000000000000000000000000F83FF83FCA
:1048800018001800180018001800F81FF81F18006A
:104890001800180018001800180018001800000070
:1048A000000000000000000000000000E00FF83FE2
:1048B0003C780E6006E007C00300030003FE03FE21
:1048C00003C007C006C00EC03CF0F83FE00F000078
:1048D0000000000000000000000000000C300C3060
:1048E0000C300C300C300C300C30FC3FFC3F0C30EA
:1048F0000C300C300C300C300C300C300C30000014
:1049000000000000000000000000000080018001A5
:10491000800180018001800180018001800180018F
:104920008001800180018001800180018001000000
:10493000000000000000000000000000000600066B
:104940000006000600060006000600060006000637
:1049500000060006180618063807F003E0010000FC
:1049600000000000000000000000000006300618F3
:10497000060C060606038601C60066007600DE0009
:104980008E0106030606060C0618063006600000B7
:1049900000000000000000000000000018001800E7
:1049A0001800180018001800180018001800180047
:1049B00018001800180018001800F81FF81F000051
:1049C0000000000000000000000000000EE01EF0EB
:1049D0001EF01EF036D836D836D836D866CC66CC1F
:1049E00066CCC6C6C6C6C6C6C6C686C386C30000D3
:1049F0000000000000000000000000000C301C302F
:104A00003C303C306C306C30CC30CC308C310C33A2
:104A10000C330C360C360C3C0C3C0C380C300000C3
:104A2000000000000000000000000000E007F81F88
:104A30001C380E70066003C003C003C003C003C06F
:104A400003C003C006600E701C38F81FE0070000AA
:104A5000000000000000000000000000FC0FFC1F30
:104A60000C380C300C300C300C300C18FC1FFC07D0
:104A70000C000C000C000C000C000C000C000000E2
:104A8000000000000000000000000000E007F81F28
:104A90001C380E70066003E003C003C003C003C0EF
:104AA00003C007E006630E3F1C3CF83FE0F700C080
:104AB000000000000000000000000000FE0FFE1FCC
:104AC00006380630063006300638FE1FFE0706039D
:104AD0000606060C061806180630063006600000AA
:104AE000000000000000000000000000E003F80FDC
:104AF0001C0C0C180C180C001C00F803E00F001E16
:104B00000038063006300E301C1CF80FE00700009D
:104B1000000000000000000000000000FE7FFE7F9B
:104B2000800180018001800180018001800180017D
:104B300080018001800180018001800180010000EE
:104B40000000000000000000000000000C300C30ED
:104B50000C300C300C300C300C300C300C300C3075
:104B60000C300C300C300C301818F81FE007000027
:104B7000000000000000000000000000036006309C
:104B8000063006300C180C180C18180C180C380EBF
:104B900030063006700760036003C001C0010000EA
:104BA0000000000000000000000000000360C3617E
:104BB000C361C36166336633663366336633663317
:104BC0006C1B6C1B6C1B2C1A3C1E380E380E000024
:104BD0000000000000000000000000000FE00C706A
:104BE00018303018700C600EC00780038003C003BB
:104BF000E006700C301C18180C300E6007E0000046
:104C000000000000000000000000000003C006607B
:104C10000C301C383818300C6006E007C0038001E7
:104C200080018001800180018001800180010000FD
:104C3000000000000000000000000000FC7FFC7F7E
:104C4000006000300018000C000600038001C00066
:104C50006000300018000C000600FE7FFE7F0000A0
:104C6000000000000000000000000000E003E0037E
:104C70006000600060006000600060006000600034
:104C80006000600060006000600060006000600024
:104C900060006000E003E00300000000300030002E
:104CA000600060006000C000C000C000C001800162
:104CB00080018001000300030003000600060000DD
:104CC000000000000000000000000000E003E0031E
:104CD00000030003000300030003000300030003BC
:104CE00000030003000300030003000300030003AC
:104CF00000030003E003E003000000000000C00127
:104D0000C00160036003600330063006180C180C05
:104D10000000000000000000000000000000000093
:104D20000000000000000000000000000000000083
:104D30000000000000000000000000000000000073
:104D4000000000000000000000000000FFFFFFFF67
:104D50000000000000000000000000000C000C003B
:104D60000C000C000C000C00000000000000000013
:104D70000000000000000000000000000000000033
:104D80000000000000000000000000000000000023
:104D9000000000000000F003F8071C0C0C0C000FD2
:104DA000F00FF80C0C0C0C0C1C0FF80FF018000096
:104DB00000000000000000000000000018001800C3
:104DC000180018001800D803F80F380C1818181815
:104DD0001818181818181818380CF80FD8030000ED
:104DE00000000000000000000000000000000000C3
:104DF000000000000000C003F007300E180C18007F
:104E0000180018001800180C300EF007C00300003E
:104E10000000000000000000000000000018001862
:104E2000001800180018C01BF01F301C18181818A4
:104E30001818181818181818301CF01FC01B00007C
:104E40000000000000000000000000000000000062
:104E5000000000000000C003F00F300C1818F81F0D
:104E6000F81F180018003818301CF00FC007000099
:104E7000000000000000000000000000800FC00FD4
:104E8000C000C000C000F007F007C000C000C000B4
:104E9000C000C000C000C000C000C000C0000000D2
:104EA0000000000000000000000000000000000002
:104EB000000000000000E00DF80F180E0C0C0C0CA8
:104EC0000C0C0C0C0C0C0C0C180EF80FE00D000C5C
:104ED0000C0C1C06F807F001000000001800180078
:104EE000180018001800D807F80F381C18181818E0
:104EF0001818181818181818181818181818000062
:104F0000000000000000000000000000C000C00021
:104F1000000000000000C000C000C000C000C000D1
:104F2000C000C000C000C000C000C000C000000041
:104F3000000000000000000000000000C000C000F1
:104F4000000000000000C000C000C000C000C000A1
:104F5000C000C000C000C000C000C000C000C00051
:104F6000C000C000F8007800000000000C000C0039
:104F70000C000C000C000C0C0C060C038C01CC007B
:104F80006C00FC009C018C030C030C060C0C000054
:104F9000000000000000000000000000C000C00091
:104FA000C000C000C000C000C000C000C000C00001
:104FB000C000C000C000C000C000C000C0000000B1
:104FC00000000000000000000000000000000000E1
:104FD0000000000000007C3CFF7EC7E383C183C16A
:104FE00083C183C183C183C183C183C183C10000E5
:104FF00000000000000000000000000000000000B1
:105000000000000000009807F80F381C1818181846
:105010001818181818181818181818181818000040
:105020000000000000000000000000000000000080
:10503000000000000000C003F00F300C1818181812
:105040001818181818181818300CF00FC0030000A2
:105050000000000000000000000000000000000050
:10506000000000000000D803F80F380C18181818BA
:105070001818181818181818380CF80FD803180032
:1050800018001800180018000000000000000000C0
:10509000000000000000C01BF01F301C181818187A
:1050A0001818181818181818301CF01FC01B0018F2
:1050B0000018001800180018000000000000000090
:1050C000000000000000B007F00370003000300066
:1050D0003000300030003000300030003000000080
:1050E00000000000000000000000000000000000C0
:1050F000000000000000E003F003380E180C380038
:10510000F003C007000C180C380EF007E003000095
:10511000000000000000000000000000000080000F
:10512000C000C000C000F007F007C000C000C00011
:10513000C000C000C000C000C000C0078007000061
:10514000000000000000000000000000000000005F
:10515000000000000000181818181818181818185F
:105160001818181818181818381CF01FE019000023
:10517000000000000000000000000000000000002F
:105180000000000000000C18180C180C180C300659
:1051900030063006600360036003C001C0010000F8
:1051A00000000000000000000000000000000000FF
:1051B000000000000000C141C141C361636363633B
:1051C00063633636363636361C1C1C1C1C1C00002D
:1051D00000000000000000000000000000000000CF
:1051E0000000000000001C38381C300C6006600312
:1051F0006003600360036006300C381C1C3800003C
:10520000000000000000000000000000000000009E
:105210000000000000001830301830187018600CC2
:10522000600CE00CC006C006800380038003800190
:105230008001C001F00070000000000000000000CC
:10524000000000000000FC1FFC1F000C0006000313
:105250008001C000600030001800FC1FFC1F00002F
:1052600000000000000000000000000000038001BA
:10527000C000C000C000C000C000C00060006000EE
:10528000300060004000C000C000C000C000C0008E
:10529000C0008001000300000000000080018001C8
:1052A00080018001800180018001800180018001F6
:1052B00080018001800180018001800180018001E6
:1052C0008001800180018001000000006000C000BA
:1052D000C001800180018001800180010003000382
:1052E000000600030001800180018001800180012F
:1052F0008001C0006000000000000000000000000D
:1053000000000000000000000000F010F81F080F6F
:10531000000000000000000000000000000000008D
:10532000000000000000000000000000000000007D
:105330000000010203040607080900000000010242
:105340000304000064530008000000203C0000003B
:1053500014020008A05300083C000020940700003D
:1053600030020008004040400A0102030000000033
:105370000000D00700000000000000000000000056
:1053800000000000000000000000FFFF000000001F
:105390001000000001000000000000000024F400E4
:04000005080001D915
:00000001FF
